:100000000C9447040C9499040C9499040C9499044E
:100010000C9499040C9499040C9499040C949904EC
:100020000C9499040C9499040C94E8230C94A42344
:100030000C949E2A0C9499040C9499040C949904A1
:100040000C9499040C9499040C9499040C949904BC
:100050000C9499040C947A2A0C9499040C949904A5
:100060000C9499040C9499040C9499040C9499049C
:100070000C9499040C9499040C9499040C9499048C
:100080000C9499040C9499040C9499040C9499047C
:100090000C9499040C9499040C9499040C9499046C
:1000A0000C9499040C9499040C94990441545A00AA
:1000B00041542B424C45504F5745524C4556454CA8
:1000C0003D2D31320041542B424C45484944454E68
:1000D0003D310041542B4741504445564E414D451A
:1000E0003D4C6174696E3634424C450041542B4797
:1000F0004150494E54455256414C533D31302C33BA
:10010000302C2C004154453D300005010902A1016D
:1001100085020901A100050919012905150025011C
:10012000950575018102950175038101050109306D
:1001300009311581257F95027508810609381581D9
:10014000257F950175088106050C0A380215812561
:100150007F950175088106C0C005010980A1018550
:10016000031A81002A8300160100260300950175F9
:10017000108100C0050C0901A10185041A01002AA3
:100180009C02160100269C02950175108100C00694
:1001900060FF0961A1010962150026FF0095207525
:1001A0000881020963150026FF0095207508910259
:1001B000C005010906A101050719E029E715002579
:1001C00001950875018102950175088101050719DE
:1001D0000029FF150026FF00950675088100050817
:1001E0001901290595057501910295017503910184
:1001F000C00001010101010101010102020202022C
:1002000002020202030303030303030304040404BE
:100210000404040505050505060606060607070786
:10022000070708080808090909090A0A0A0B0B0B3D
:100230000C0C0C0D0D0D0E0E0E0F0F0F10101111DA
:10024000111212131314141515161617171818195E
:10025000191A1A1B1B1C1D1D1E1E1F2020212222C5
:10026000232424252626272829292A2B2C2D2D2E08
:100270002F30313232333435363738393A3B3C3D22
:100280003E3F404142434445464748494A4C4D4E13
:100290004F50515354555658595A5B5D5E5F6162D9
:1002A00064656668696B6C6D6F7072737577787A68
:1002B0007B7D7E8082838587888A8C8E8F919395C3
:1002C00096989A9C9EA0A2A3A5A7A9ABADAFB1B3E7
:1002D000B5B7BABCBEC0C2C4C6C9CBCDCFD1D4D6C7
:1002E000D8DBDDDFE2E4E7E9EBEEF0F3F5F8FAFD69
:1002F000FFFFAA7F55402223252628292A2C2D2FAF
:100300003032333536383A3B3D3E4042434547492B
:100310004A4C4E5051535557595A5C5E6062646660
:1003200068696B6D6F71737577797B7D7F8183856C
:1003300087898A8C8E90929496989A9C9E9FA1A36E
:10034000A5A7A8AAACAEAFB1B3B4B6B8B9BBBCBE92
:10035000BFC1C2C3C5C6C7C9CACBCCCDCED0D1D20E
:10036000D2D3D4D5D6D7D7D8D9D9DADADBDBDBDC10
:10037000DCDCDCDCDDDDDDDDDCDCDCDCDCDBDBDBBC
:10038000DADAD9D9D8D7D7D6D5D4D3D2D2D1D0CE1C
:10039000CDCCCBCAC9C7C6C5C3C2C1BFBEBCBBB921
:1003A000B8B6B4B3B1AFAEACAAA8A7A5A3A19F9E9F
:1003B0009C9A98969492908E8C8A89878583817F67
:1003C0007D7B79777573716F6D6B69686664626048
:1003D0005E5C5A5957555351504E4C4A4947454314
:1003E00042403E3D3B3A3836353332302F2D2C2AB1
:1003F00029282625232229001E001F002000210075
:100400002200230024002500260027002D002E00B6
:100410002A002B0014001A000800150017001C0009
:1004200018000C00120013002F0030004C0039009F
:1004300004001600070009000A000B000D000E0062
:100440000F00330034002800E1001D001B000600EF
:10045000190005001100100036003700C25CC35CB3
:10046000B3000151E000E000E2002C0002514E0018
:100470004B00B2004C00C25CC35CD25CD35C3D005C
:100480003E003F0040004100420043004400450060
:100490002A00C75CC85CC55CC65C150017001C0060
:1004A00018000C00120013002F0030004C00C95C33
:1004B000CA5CCB5CCC5C09000A000B000D000E008E
:1004C0000F00330034002800CB5CCC5C1B0006001E
:1004D000190005001100100036003700C25CC35C33
:1004E000B3000151E000E300E2002C0002514B0098
:1004F0004E00B2004C0053003A003B003C003D006F
:100500003E003F0040004100420043002D002E000D
:100510002A002B0014001A000800150017001C0008
:1005200018000C00120013002F0030004C0039009E
:1005300004001600070009000A000B000D000E0061
:100540000F00330034002800E1001D001B000600EE
:10055000190005001100100036003700C25CC35CB2
:10056000B3000151E000E300E2002C0002514B0017
:100570004E00B2004C00000000000000000000002F
:10058000000000000000000000000000000000006B
:10059000000000000000000000000000000000005B
:1005A000000000000000000000000000000000004B
:1005B000000000000000000000000000000000003B
:1005C000000000000000000000000000000000002B
:1005D000000000000000000000000000000000001B
:1005E000000000000000000000000000000000000B
:1005F00000000000000000000000000000000000FB
:1006000000000000000000000000000000000000EA
:1006100000000000000000010101010101000101D2
:1006200001010000000000000000000000000000C8
:1006300001000100010101010101010101010101AC
:10064000010101010101010101010101010101019A
:100650000100000001010000000000000000000097
:10066000000000000000000000000000000000008A
:1006700000010101010000000000000000002A2B21
:100680002800000000000000000000000000000042
:100690000029000000002C1E3420212224342627AB
:1006A000252E362D3738271E1F20212223242526CC
:1006B0003333362E37381F0405060708090A0B0C9A
:1006C0000D0E0F101112131415161718191A1B1CE2
:1006D0001D2F3130232D350405060708090A0B0CA0
:1006E0000D0E0F101112131415161718191A1B1CC2
:1006F0001D2F3130354C00047F3F1F6432146432AB
:1007000014783C1E1E140A050401EC00D300C50039
:10071000B000AC0007060504010020222324252197
:1007200041542B474150474554434F4E4E0041548E
:100730002B4556454E54454E41424C453D3078324E
:100740000041542B4556454E54454E41424C453D83
:100750003078310009025B00030100A0FA090400AF
:1007600000010301010009211101000122400007DD
:1007700005810308000A09040100020300000009C2
:100780002111010001222200070582032000010738
:100790000503032000010904020001030000000911
:1007A00021110100012285000705840320000A129F
:1007B00001100100000008636C716C01000102036C
:1007C0000104033000000016034C0061007400694E
:1007D000006E003600340042004C00450000001A54
:1007E000036C006100740069006E0063006F006DAF
:1007F00000700061007300730000000403090441ED
:10080000542B424C454849444D4F5553454255544D
:10081000544F4E3D0041542B424C454849444D4FA6
:100820005553454D4F56453D25642C25642C256474
:100830002C25640041542B424C45484944434F4EBB
:1008400054524F4C4B45593D307825303478004157
:10085000542B424C454B4559424F415244434F441F
:10086000453D253032782D30302D253032782D25FC
:100870003032782D253032782D253032782D2530C4
:1008800032782D25303278004F4B00009B23112405
:100890001FBECFEFDAE0DEBFCDBF04B603FE27C038
:1008A0008091180490911904A0911A04B0911B042E
:1008B0008730904BA740B04BD1F41092180410929F
:1008C000190410921A0410921B0414BE84B7877F77
:1008D00084BF0FB6F894A8958091600088618093DA
:1008E0006000109260000FBEE0E0F8E3099511E0AF
:1008F000A0E0B1E0EAEAFDE502C005900D92A6395C
:10090000B107D9F724E0A6E9B1E001C01D92A831F2
:10091000B207E1F714E0C7E4D4E004C02197FE0178
:100920000E94E92AC634D107C9F70E94C0240C945A
:10093000882E0C940000662371F0FC01680F792F5B
:10094000711DE617F70738F41EBC0DB407FEFDCF86
:100950008EB58193F6CF0895E8EDF0E080818E7F2B
:1009600080831092E2001092DA001092E100A0EE73
:10097000B0E08C9181608C9380818F77808319BCEB
:10098000A7EDB0E08C918E7F8C9380818F7E8083E9
:100990001092570208952091E4003091E50095E609
:1009A000A9012091EC00822F817020FF06C0809168
:1009B000E80080FF06C080E008952091E80022FD55
:1009C0001AC080911304882389F0853089F08091C2
:1009D000EB0085FD0FC02091E4003091E500421747
:1009E0005307F9F29150E1F684E0089582E008950A
:1009F00083E0089581E00895EF92FF920F931F9393
:100A0000CF937C018B010E94CB04C82F811117C0AA
:100A10008091E80085FD0BC08091E8008E7780937F
:100A2000E8000E94CB04882399F3C82F08C0F7017F
:100A300081917F018093F1000150110949F78C2FBA
:100A4000CF911F910F91FF90EF900895CF93FC01EC
:100A500080911304843001F5C091E900CF7020919A
:100A6000EC00922F917020FD90E8C92B82E08093DA
:100A7000E9008091E80080FF0CC050E040E060E2B7
:100A800070E0CF010E94FC048091E8008E77809393
:100A9000E800CF70C093E900CF910895809165027E
:100AA00087FF13C08091E80082FF06C08091E800B4
:100AB0008B778093E80004C0809113048111F2CFFA
:100AC0000895809113048823D9F38091E80080FF72
:100AD000F8CF8091E8008E77ECCF982F9093E900C3
:100AE000242F762F50E0891731F07091EC0020917F
:100AF000ED005091F00021FD07C09F5F973071F726
:100B00008093E90081E008953091EB003E7F3093BF
:100B1000EB003091ED003D7F3093ED003091EB0024
:100B200031603093EB007093EC002093ED00509314
:100B3000F0002091EE0027FDE0CF80E00895CF92F5
:100B4000DF92EF92FF920F931F93CF93DF93C8ED45
:100B5000D0E088818F7E8883E7EDF0E0808181603E
:100B6000808384E082BF81E08093570288818E7FFA
:100B7000888302EE10E0F80110821092DA0081EE14
:100B8000C82ED12CF601108288818F7788838881C6
:100B90008068888388818F7D888319BC10921304B4
:100BA00010926402109263021092620290EEE92E9B
:100BB000F12CF70180818B7F80838881816088831D
:100BC00042E060E080E00E946D05F60180818E7F4A
:100BD0008083F80180818160808380818860808348
:100BE000F70180818E7F8083888180618883DF9197
:100BF000CF911F910F91FF90EF90DF90CF900895CC
:100C0000FC0180916B0290916C0286179707A0F00F
:100C10006115710529F49091E8009E779093E800A2
:100C200090E06115710551F4911108C08091E800C0
:100C300082FF34C080E00895BC01F2CF809113049C
:100C40008823C1F18530C1F18091E80083FD30C077
:100C50008091E80082FDEACF8091E80080FFE1CF3B
:100C60008091F3002091F200382F6115710519F081
:100C70002830310558F091E02830310509F090E036
:100C80002091E8002E772093E800CBCF81918093CC
:100C9000F100615071092F5F3F4FE7CF809113043E
:100CA000882341F0853041F08091E80083FFBECF7A
:100CB00081E0089582E0089583E00895809117010E
:100CC000811107C080911304843011F083E00895EE
:100CD00082E0089508958091590208959091330219
:100CE000803F41F48091340287FD109234029923B1
:100CF00071F00895813F29F4809134021816ACF305
:100D0000F6CF823F81F497FFF2CF109233028091A9
:100D1000340290913502892B90913602892B49F744
:100D2000109237020895833F19F4191674F3DFCF38
:100D3000893F39F4809135021816CCF610923502AD
:100D4000D6CF8A3F29F48091350287FFD0CFF6CFE6
:100D50008B3F39F48091360287FFC9CF109236025B
:100D6000C6CF8C3F29F4809136021816BCF3BFCF52
:100D7000843F31F4809132028E7F80933202B7CF6C
:100D8000853F21F4809132028D7FF7CF863F21F499
:100D9000809132028B7FF1CF873F21F48091320224
:100DA000877FEBCF883F21F4809132028F7EE5CFA1
:100DB0008D3F31F480911D028E7F80931D0297CF6D
:100DC0008E3F21F480911D028D7FF7CF8F3F09F078
:100DD0008ECF80911D028B7FF0CF80911D0280FD10
:100DE00016C081FD16C082FD16C08091370288238F
:100DF000A1F0883280F428E0829FC001112468E2CB
:100E000070E00E94D52A862F672B39F0089582E082
:100E1000089584E0089588E0089581E00895809120
:100E20001D0280FD14C081FD14C082FD16C080919A
:100E30003702882381F0843180F422E3829FC0014D
:100E4000112464E170E00E94D52A862F08958CE079
:100E5000089589E1089585E0089582E30895803F2B
:100E600031F40E940F078195809334020895813FE9
:100E700019F40E940F07F8CF823F31F40E940F0748
:100E80008195809333020895833F19F40E940F07E0
:100E9000F8CF893F29F40E94ED068093350208952A
:100EA0008A3F21F40E94ED068195F7CF8B3F31F404
:100EB0000E94ED0681958093360208958C3F19F4C7
:100EC0000E94ED06F8CF843F31F4809132028160B8
:100ED000809332020895853F21F48091320282602E
:100EE000F7CF863F21F4809132028460F1CF873FB3
:100EF00021F4809132028860EBCF883F21F4809109
:100F000032028061E5CF8D3F31F480911D02816016
:100F100080931D0208958E3F21F480911D0282600E
:100F2000F7CF8F3FB9F780911D028460F1CF87E73B
:100F300097E7909301088093000888E19AE00FB644
:100F4000F894A895809360000FBE90936000FFCF47
:100F5000CF92DF92EF92FF920F931F932FB7F894E7
:100F60004091530250915402609155027091560283
:100F70002FBF6A017B01EE24FF248C0130E020E0CA
:100F8000C016D106E206F30650F0481B590BCA0101
:100F90001F910F91FF90EF90DF90CF9008954150F7
:100FA0005109F3CF2FB7F8948091530290915402D6
:100FB000A0915502B09156022FBF0895E0912902E9
:100FC000F0912A02309749F082E080933102048048
:100FD000F581E02D81E392E009950E94D20790937C
:100FE00039028093380208959C01FC0132969FEFEC
:100FF00080E04191461751F09F3F19F4411101C023
:10100000982F8F5F8630A9F79F3F09F40895290F25
:10101000311D97FD3A95F901628308958091180278
:101020008111109218020895809117029091160272
:10103000892B90911502892B80939601909118022B
:10104000992391F0892B8093960120E088E991E023
:10105000FC013191CF0131112F5FF1E08E399F07F3
:10106000B9F721110E940E08E0912902F0912A029D
:10107000309731F00280F381E02D86E991E0099408
:101080000895990F990F990F890F982F977086954A
:101090008695869525E0829FF0011124E451FE4F4C
:1010A00050E040E080E0219130E0092E02C036950A
:1010B00027950A94E2F721703327042E01C0220FEE
:1010C0000A94EAF7822B4F5F5F4F4530510559F77D
:1010D0000895990F990F990F890F982F977041E0F4
:1010E00001C0440F9A95EAF786958695869595E016
:1010F000899FF0011124E451FE4F30E020E070E0C0
:101100005191DF011197CB01022E02C09695879570
:101110000A94E2F7817081958527842385278C9333
:101120002F5F3F4F2530310559F708958091EB012E
:101130009091BA01981301C008958F5F8770FACF1C
:10114000882341F08095909117028923809317029C
:101150000C9414080895882339F090911702982B65
:10116000909317020C94140808952091AE013091C9
:10117000AF012817390771F09093AF018093AE014A
:10118000E0912902F0912A02309721F00084F18544
:10119000E02D099408952091AC013091AD012817FC
:1011A000390771F09093AD018093AC01E091290271
:1011B000F0912A02309721F00680F781E02D099402
:1011C000089510921602109215020E94140886E0EB
:1011D000E1E3F2E0DF011D928A95E9F71092370210
:1011E00010921D020E94DE0790E080E00E94CB0872
:1011F00090E080E00C94B50860931404709315049B
:1012000080931604909317040C94E1080F931F9396
:101210006091140470911504809116049091170444
:101220008B019C01067011272227332706301105F8
:101230002105310529F468601F910F910C94FC0879
:10124000677FFACF0F931F9341E050E060E070E0BA
:1012500004C0440F551F661F771F8A95D2F7CB0134
:10126000BA01609570958095909500911404109145
:1012700015042091160430911704602371238223F2
:1012800093231F910F910C94FC0890911402809568
:10129000892380931402282F277071F4282F082E99
:1012A000000C330B9217130639F0859585958595BB
:1012B0000E9422091092140208950F931F9341E097
:1012C00050E060E070E004C0440F551F661F771FB8
:1012D0008A95D2F78091140490911504A091160478
:1012E000B09117048A019B01082B192B2A2B3B2B49
:1012F000C901B8011F910F910C94FC086093190269
:1013000070931A0280931B0290931C020C94E108C4
:101310008823F1F19CEF980F913A78F4E8E9F1E035
:101320002EE931E09191891303C0DF0111971C92DE
:101330002E173F07B9F70C94140890E2980F9830D5
:1013400088F4877021E030E0A90102C0440F551FE6
:101350008A95E2F7CA0180959091170289238093BC
:101360001702E9CF9BE5980F933020F490E080E0DE
:101370000C94CB0898E5980F973120F490E080E02A
:101380000C94B508803F20F00E946E060C94DE0796
:1013900008958823D1F19CEF980F913A38F4682F83
:1013A00086E991E00E94F4070C94140890E2980FEB
:1013B000983068F4877021E030E001C0220F8A95F0
:1013C000EAF780911702822B80931702EDCFEBE5AD
:1013D000E80FE33038F4F0E0EA5BFE4F808190E004
:1013E0000C94CB08E8E5E80FE73148F4F0E0EE0FA5
:1013F000FF1FE75BFE4F808191810C94B508803F11
:1014000020F00E942F070C94DE070895E091290236
:10141000F0912A02309721F00190F081E02D09949B
:1014200080E00895FA01811101C0FB0109948091C7
:101430004602982F9E7F29F4817082608093460235
:1014400008958A34E8F381708864F8CFAF92BF9230
:10145000DF92EF92FF920F931F93CF93DF93082FAA
:10146000162FE901E42FF0E0EF50FE4F611110C09C
:10147000E4915E2F4E2F4983E8835A83DF91CF9109
:101480001F910F91FF90EF90DF90BF90AF90089564
:10149000E62EF12C4491D42EE42FF0E026E0829F3A
:1014A000C00111242FEF30E0B9010E94C12A802F22
:1014B00090E0880F991F55E5569FD001579FB00DBA
:1014C00011248A1B9B0B982F990F890F5901AE1875
:1014D000BF08AE9ED001AF9EB00DBE9EB00D1124D0
:1014E0005B2F189F80011124012F11275901A01A89
:1014F000B10AAE9E8001AF9E100DBE9E100D11244C
:101500005901A81AB108AE9CC001AF9C900DBE9CB9
:10151000900D1124892F9927281B390B2E9FC0016C
:101520002F9F900D3E9F900D1124E92F6230710581
:10153000A1F050F46115710509F49DCF613071057A
:1015400081F0EB2F512F97CF6430710569F080F057
:101550006630710509F48FCFF4CFE42F4B2F592F4C
:101560008ACFE42F412F87CFEB2F542F492F83CFE2
:101570004B2F5D2DE12F7FCF9091260292FF06C069
:10158000282F28712830F9F4877F846093FF06C0E4
:10159000282F28712831F1F4877E84612091270259
:1015A00020FF06C0382F38713830D9F4877F81602A
:1015B00021FF06C0282F28712831D1F4877E816150
:1015C00094FD877E0895282F24712430F9F68B7FAF
:1015D0008860DCCF282F2471243101F78B7E88614D
:1015E000DDCF382F3171313019F78E7F8860E0CF31
:1015F000282F2171213121F78E7E8861E1CFEF9272
:10160000FF920F931F93CF93DF93EC018B010E9406
:10161000D2077C01669912C082E08A95F1F700C07A
:10162000C7010E94A80780179107A0F380E0DF910F
:10163000CF911F910F91FF90EF90089580916D02CF
:101640008CBD80916E028DBD2C981EBC00000DB427
:1016500007FEFDCF8EB588838E3F78F02C9A82E40A
:101660008A95F1F700C02C98C7010E94A80780173F
:10167000910758F380E02C9ADACF63E0CE0101960F
:101680000E949B046B816F77613120F4CE01049638
:101690000E949B0481E0EFCF1F93CF93DF93CDB7E0
:1016A000DEB764970FB6F894DEBF0FBECDBF182F1C
:1016B000E091120480911104E81719F1669B2BC088
:1016C00066E970E0CE0101960E94FF0A8823C9F006
:1016D0008C8187FD0CC080911204909111048917B0
:1016E00081F090E001968170992780931204112374
:1016F00041F09091120480911104981711F06699AD
:10170000DFCF64960FB6F894DEBF0FBECDBFDF917A
:10171000CF911F910895F0E0EE0FFF1FE35FFB4FA5
:10172000808191810E94A8078D32914050F3809171
:10173000120490911104891721F390E001968170B1
:10174000992780931204DDCFEF92FF920F931F939E
:10175000CF93DF93EC018B0180916D028CBD809162
:101760006E028DBD2C980E94D2077C0188818EBDAF
:1017700000000DB407FEFDCF8EB58E3FB9F42C9A54
:1017800082E48A95F1F700C02C98C7010E94A8074F
:101790008017910758F380E02C9ADF91CF911F9129
:1017A0000F91FF90EF90089581E0F6CFFE01319602
:1017B0008B818F778D5F8E0F9F2F911DE817F90713
:1017C00098F721912EBD0DB407FEFDCFF7CF5F92A4
:1017D0006F927F928F929F92AF92BF92CF92DF9241
:1017E000EF92FF920F931F93CF93DF93CDB7DEB7A6
:1017F000A8970FB6F894DEBF0FBECDBF8C017B015A
:101800006A014901FC0101900020E9F7CF0101972D
:101810005C01672B61F0909111048091120498177C
:1018200021F081E00E944C0BF6CFF701108240E1DD
:10183000742E5AE0652E60E9562EA501401B510B0F
:1018400041315105C4F07D8A1E8A6F8A588EF80195
:10185000DE015996872D01900D928A95E1F7B4012A
:10186000CE0145960E94A40B811102C010E03AC03F
:10187000005F1F4FE2CF80E18D8B1E8A8AE08F8B45
:10188000842F8F77888F5527B801CE0149960E9403
:10189000822BB401CE0145960E94A40B182F8823F9
:1018A00029F3E114F104A9F50E94D2077C0180918B
:1018B000110490E09C012F5F3F4F2170332740912E
:1018C0001204421304C080E00E944C0BF0CF880F3A
:1018D000991FFC01E35FFB4FF182E082209311042A
:1018E0000E94D207812FA8960FB6F894DEBF0FBED4
:1018F000CDBFDF91CF911F910F91FF90EF90DF90BF
:10190000CF90BF90AF909F908F907F906F905F909F
:1019100008955701AC0CBD1C87016CE271E0CE014B
:1019200001960E94FF0A882309F4A0CF89818032A2
:1019300019F0F70110829ACF8C818F77CA2CC01AC8
:101940008C1508F4C82ECC2051F0D12CA601BE0174
:101950006B5F7F4FC8010E94822B0C0D1D1D8C8177
:1019600087FDDBCFF801108201501109E016F10666
:1019700030F4F80180818A30A9F38D3099F36AE060
:1019800070E0C7010E94962B009721F07C01FFEFC9
:10199000EF1AFF0A68E878E0C7010E94542B11E0B3
:1019A000892B09F49FCF62CF8F929F92AF92BF9203
:1019B000CF92DF92EF92FF920F931F93CF93DF931B
:1019C000CDB7DEB77C015B014A01CDB6DEB60E9421
:1019D000642B01962DB73EB7281B390B0FB6F89430
:1019E0003EBF0FBE2DBF0DB71EB70F5F1F4FB70114
:1019F000C8010E945D2B26E930E0A401B501C801B1
:101A00000E94E70B0FB6F894DEBE0FBECDBEDF918D
:101A1000CF911F910F91FF90EF90DF90CF90BF90EB
:101A2000AF909F908F900895CF93DF9300D00F9247
:101A3000CDB7DEB790911304943011F589837B8381
:101A40006A839093E9008FEF9091E800815095FDB3
:101A500006C09AE69A95F1F700C08111F5CF809102
:101A6000E80085FF0DC050E040E063E070E0CE018B
:101A700001960E94FC048091E8008E778093E80034
:101A80000F900F900F90DF91CF910895BC01605897
:101A9000710983E00C94140DCF93C82F0E94C909DB
:101AA000C93349F42FEF83EF91E0215080409040FB
:101AB000E1F700C000008C2FCF910C9488090F93A0
:101AC0001F93CF93DF93C62FD42F022FFC01828167
:101AD0008823A1F06093B0010E94D2079093AB01DC
:101AE0008093AA01C77081E001C0880FCA95EAF708
:101AF000DF91CF911F910F910C94AB081091B00121
:101B0000161335C08091AA019091AB010E94A807DD
:101B1000883C910560F5C0E2CD0F1D17B9F080E259
:101B2000810F883040F4177081E001C0880F1A954A
:101B3000EAF70E94A008C83048F481E09D2F977012
:101B400001C0880F9A95EAF70E94AB08802F0E9487
:101B50004C0DC83098F4D77081E001C0880FDA9539
:101B6000EAF7DF91CF911F910F910C94A008C770F5
:101B700081E001C0880FCA95EAF7F3CFDF91CF91DA
:101B80001F910F9108958091460280FD0CC0109224
:101B9000A5011092A4011092A6011092A801109222
:101BA000A7011092A901279A35B13F7725B1206886
:101BB0004FB7F89484EA91E0FC015191CF0168E0BD
:101BC00025B957FF35B9550F000000C035B90000E1
:101BD00000C000C000C000C000C000C000C000C005
:101BE00000C000C000C000C000C000C000C06A95B6
:101BF00039F7F1E08A3A9F07F9F64FBF55E85A9551
:101C0000F1F7000008950F931F93CF93DF93EC013A
:101C100010914702009148028C8124EA31E040E0B3
:101C2000811140914902602F812F0E94260A8C81E8
:101C300027EA31E040E0811102C040914902602F63
:101C4000812F0E94260A0E94C30D8C8190E001968C
:101C5000817099278C83DF91CF911F910F91089507
:101C60000F931F93CF93DF93EC01009149021091E2
:101C7000480224EA31E0402F612F8C810E94260A1D
:101C80008C8127EA31E0402F612F81580E94260A7B
:101C90000E94C30D9A818C8190FF07C08F5F8C8357
:101CA000DF91CF911F910F9108958150F8CFCF927E
:101CB000DF92EF92FF920F931F93CF93DF93FC017C
:101CC00082811FEF80FF11E0C4EAD1E0D12CC12C4A
:101CD000198218821A8294E0E92EF12C00E080919A
:101CE000A101800F8330CCF18170082E000C990B7C
:101CF0008C159D0591F4809149028E9DA0018F9DC8
:101D0000500D112455954795559547959E01609125
:101D10004802809147020E94260A010FF1E0EF1A63
:101D2000F108E9F62396CA94CD2899F40E94C30DD0
:101D30008091A1011130C9F4811113C01093A10148
:101D4000DF91CF911F910F91FF90EF90DF90CF9097
:101D50000895CC24C394D12CBBCF87FFC6CF8E5F10
:101D6000C4CF81508093A101EBCF90E001968170A8
:101D70009927F8CF1092A5011092A4011092A60104
:101D80001092A8011092A7011092A9018091A201BE
:101D90001816ECF080910C0187FD0AC024EA31E0AE
:101DA0004091490260914802809147020E94260AB0
:101DB00080910C0118166CF427EA31E04091490239
:101DC00060914802809147020E94260A08C0813033
:101DD00079F31092A8011092A7011092A9010E9414
:101DE000C30D80910B019091A201980F9093A201D5
:101DF00020910C01280F20930C01121614F41916CF
:101E00001CF4819580930B010895FF920F931F930B
:101E1000CF93DF93EC018C819D810196817099278E
:101E20009D838C83E6E4F2E0F380028115E524EAE9
:101E300031E04F2D602F189F802D11240E94260A1B
:101E40008C81817027EA31E04F2D602F819F802D9A
:101E500011240E94260ADF91CF911F910F91FF90CC
:101E60000C94C30D9091460290FF0EC08093A50183
:101E70006093A4014093A6018093A8016093A701F9
:101E80004093A9010C94C30D08950F931F93CF9312
:101E9000DF9300D00F92CDB7DEB78C018091A30104
:101EA00081110AC09E012F5F3F4F4FEF6FEF0E94DD
:101EB000260A8A818093A301F8016481613069F068
:101EC0008091A30140E0662361F040E0623011F4AC
:101ED0004091A30180E060E004C06091A30140E074
:101EE00080E00E94320FF801848190E0019663E067
:101EF00070E00E94D52A84830F900F900F90DF919D
:101F0000CF911F910F910895CF93DF9300D00F923F
:101F1000CDB7DEB79091460290FF0AC09E012F5FB9
:101F20003F4F0E94260A4B8169818A810E94320FAD
:101F30000F900F900F90DF91CF910895CF93DF9383
:101F4000EC01EC81F0E0EA50FD4F4491E6E4F2E070
:101F5000628181810E94840F8C818F5F8C83DF91ED
:101F6000CF910895CF93DF93EC01E6E4F2E0438153
:101F700062818C810E94840F8C818F5F8C83DF91C2
:101F8000CF9108956F927F928F929F92AF92BF925E
:101F9000CF92DF92EF92FF920F931F93CF93DF9335
:101FA000A7E7B1E030E020E010E041E050E066E279
:101FB000662E62E0762E8D91E82FE295EF70F0E0CC
:101FC00061A18F707A0102C0EE0CFF1C8A95E2F7C6
:101FD000C701962F982B91A392A18095892382A364
:101FE00080E58A95F1F7CA01022E01C0880F0A9494
:101FF000EAF7882E082F00958EE1E82E82E0F82E71
:102000009FE7C92E91E0D92EF70170E05F01908023
:10201000E60169916E01862F82958F7090E0EC0148
:1020200088A190E06F7002C0959587956A95E2F758
:1020300080FD46C0882D892980833196E5018881FD
:10204000981271E06E167F0609F7FD0131978081C5
:10205000E82FE295EF70F0E061A18F706A0101C096
:10206000CC0C8A95EAF79C2D9095962391A382A19A
:102070008C2982A3172B2F5F3F4F2830310509F0A1
:102080009ACF112301F181E08093A0010E94D20731
:1020900090939F0180939E0180919E0190919F015A
:1020A0000E94A807069798F0EBE4F2E0D7018D9123
:1020B0007D0181936A167B06C9F71092A00107C0C3
:1020C000802F8921B9CF8091A0018111E5CF812F87
:1020D000DF91CF911F910F91FF90EF90DF90CF9004
:1020E000BF90AF909F908F907F906F9008958F9248
:1020F0009F92AF92BF92CF92DF92EF92FF920F9397
:102100001F93CF93DF93CDB7DEB7CA57D1090FB670
:10211000F894DEBF0FBECDBF6C0190911104809189
:102120001204981339C080910C0490910B04891704
:1021300099F12AE0289FC001112485589D4FFC0188
:10214000DE01AF58BF4F01900D922A95E1F7FC01D7
:10215000E08015810681F780908481840E94D207F7
:1021600090937A0280937902F1E0EF1609F46BC044
:10217000EE2031F122E0E21609F481C080910C04D6
:1021800090910B04891741F090E0019668E270E0AD
:102190000E94D52A80930C04C658DF4F0FB6F894DE
:1021A000DEBF0FBECDBFDF91CF911F910F91FF908A
:1021B000EF90DF90CF90BF90AF909F908F90089559
:1021C0006FE478E0CE0101965C010E945D2B1F92C6
:1021D0008F921F929F921F92FF921F920F931F92B6
:1021E0001F93E6968FADE6971F928F93E5968FAD7E
:1021F000E5971F928F93BF92AF921F9280E38F93C8
:102200008E010F5B1F4F1F930F930E94A12B96010E
:1022100050E040E070E060E0C8010E94E70B0FB6BC
:10222000F894DEBF0FBECDBF8111A8CFFFE729EA2A
:1022300033E0F15020403040E1F700C0000081E081
:102240000E944C0BA9CF64E378E08E010F5F1F4F13
:10225000C8010E945D2BE6968FADE6978F93E596B9
:102260008FADE5978F931F930F931F9280E38F930A
:10227000005C1F4F1F930F930E94A12BC8CF65E1F5
:1022800078E0CE0101965C010E945D2B802F002E2C
:10229000000C990B9F930F93812F012E000C990B2B
:1022A0009F931F93E6968FADE697282F082E000C7C
:1022B000330B3F938F93E5968FADE597282F082E2C
:1022C000000C330B3F938F93BF92AF921F9280E32A
:1022D0008F938E010F5B1F4F1F930F930E94A12BB3
:1022E000960150E040E070E060E0C8010E94E70B1A
:1022F0000FB6F894DEBF0FBECDBF882309F496CF8A
:102300006FEF77E0C8010E945D2BF0FE05C069E128
:1023100071E0C8010E948B2BF1FE05C06BE171E0FA
:10232000C8010E948B2B6DE171E0F2FC04C0F1103A
:1023300005C06FE171E0C8010E948B2B960150E04F
:1023400040E070E060E0C8010E94E70B6DCFEF92C3
:10235000FF920F931F93CF938C010E945E06C82FAC
:102360008DEF8C0F823058F588E2E82EF12CE09149
:102370000B048E2F90E00196B7010E94D52A909110
:102380000C04981305C086E990E00E947710EFCF07
:102390009AE0E99FF0011124E558FD4F91E0908308
:1023A0001483038380930B04C43059F4B80184E090
:1023B000CF911F910F91FF90EF900C94140DC230AC
:1023C000A9F3CF911F910F91FF90EF900895AF92D5
:1023D000BF92CF92DF92EF92FF920F931F93CF9312
:1023E000DF93EC010E945E06182F8DEF810F823083
:1023F00008F04AC00981FD80EC80BB80AA8088E299
:10240000C82ED12CE0910B048E2F90E00196B601DE
:102410000E94D52A90910C04981305C086E990E09B
:102420000E947710EFCF9AE0E99FF0011124E55860
:10243000FD4F92E09083A382B482E582F682078307
:1024400080930B04143011F584E08093E9008FEF42
:102450009091E800815095FD06C09AE69A95F1F7B3
:1024600000C08111F5CF8091E80085FF0FC050E0DA
:1024700040E066E070E0CE010E94FC048091E8003C
:102480008E778093E80002C01230F1F2DF91CF9195
:102490001F910F91FF90EF90DF90CF90BF90AF9082
:1024A0000895CF92DF92EF92FF920F931F93CF93F5
:1024B000DF93EC010E945E06182F8DEF810F8230B2
:1024C00008F05AC008810E94D2077C0188E2C82E19
:1024D000D12CE0910B048E2F90E00196B6010E9462
:1024E000D52A90910C04981305C086E990E00E94CB
:1024F0007710EFCF6A815B814C813D812E819F8176
:102500007AE0E79FF0011124E558FD4F1082F28236
:10251000E1820383648355834683378320879187D1
:1025200080930B04143051F581E08093E9008FEF24
:102530009091E800815095FD06C09AE69A95F1F7D2
:1025400000C08111F5CF8091E80085FF17C050E0F1
:1025500040E068E070E0CE010E94FC048091E80059
:102560008E778093E80088E0FE01AAE5B2E0019052
:102570000D928A95E1F702C01230B1F2DF91CF914E
:102580001F910F91FF90EF90DF90CF900895CF9320
:1025900084E090E00E94402EC82F81E290E00E94EB
:1025A000402E982F8C2FCF9108950F931F93CF9388
:1025B000DF9320E1629FE001112450E0440F551F9A
:1025C000C40FD51F30E8839FC0011124C80FD91F45
:1025D000CE0186960E94402E082F10E0102F002773
:1025E000CE0187960E94402E9801282BC901DF91C9
:1025F000CF911F910F910895462F843038F4783091
:1026000028F4683018F4672F0C94D51290E080E01D
:102610000895CF93DF930E94FC12EC01823891055C
:10262000A9F1D8F58133910509F496C048F58932AE
:10263000910509F48AC08A9709F495C0C11521E56E
:10264000D20708F0BCC0C11530E5D30708F014C1AB
:10265000C83ED10508F09CC0C03ED10560F5C83A1F
:10266000D10508F087C0C53AD10508F0FDC0C130DA
:10267000D10509F12097F9F0C430D105E0F440C04C
:102680008533910509F45AC0C997C1F68091260295
:10269000837089F0C0EED0E00EC0833E910599F1C1
:1026A00070F4803E910501F1823E910539F68091EA
:1026B000260282FD21C0CE01DF91CF910895863E92
:1026C000910561F1873E910571F1843E910509F014
:1026D000B5CF8091270281FFEECF80912602C7EE11
:1026E000D0E084FD0DC0E7CF8091260280FD12C1AD
:1026F0009091270290FFDFCFC3EED0E084FFDBCFC5
:10270000D0E0C0E0D8CF8091260282FD06C1909132
:10271000270290FDBFCF84FFCECFF2CF809126025B
:1027200083FDDDCFC8CF8091260283FDF9C0909153
:10273000270291FFF0CFC4EED0E0BDCF80912602FA
:1027400085FFB9CFC9E2D0E0B6CF8091260285FFE0
:10275000B2CFC5E3D0E0AFCF8091260286FFABCFEA
:10276000CAE2D0E0A8CF8091260286FFA4CFC1E3C1
:10277000D0E0A1CFCF3BD10518F6C85AD0E0CC0F9E
:10278000DD1FC75BDE4F0990D881C02DD46493CF85
:10279000C11540E2D40758F4C11581E0D80708F00C
:1027A0008ACFC03FD10508F4ABCFD06584CFC11527
:1027B00090E4D90708F4A4CFDF70D06A7CCFC115AC
:1027C00025E5D20700F5C11534E5D30708F08AC026
:1027D000C11543E5D40708F071C0C11582E5D807DB
:1027E00008F467C0CE018370992721E030E002C071
:1027F000220F331F8A95E2F7C695C69580E2C89FDF
:10280000E001112452C0C11599E5D907A8F4C115FA
:1028100028E5D20708F06BC0C11536E5D30708F0EC
:102820006FCF8C2F0E94BC0AC82FD0E0DC2FCC27A2
:10283000CC27DF71D0623FCFC1154AE5D40708F439
:102840005BC0CE0190568115904208F059CF8D2F74
:102850008F710E94BC0A90E0982F882788279F716B
:102860009C012C2BE901E6CFC55AD0E0CA5BDE4FB4
:10287000C881D0E0D0641FCFCE01E4E09695879563
:10288000EA95E1F783702C2F26952695237040E278
:10289000249F90011124382B8C2F8370C1E0D0E04D
:1028A00002C0CC0FDD1F8A95E2F7C22BD32BDC6868
:1028B00002CFDC2FCC27C16FD06AFDCECE01837052
:1028C000992721E030E002C0220F331F8A95E2F7FA
:1028D000C695C69590E2C99FE0011124C22BD32B67
:1028E000DA68E9CEDC2FCC27C46FD06AE4CEDC2FC7
:1028F000CC27C06FD06ADFCE8C2F8F700E94BC0AAD
:1029000034E0D695C7953A95E1F7CF709C2FEC014E
:10291000D069D1CEC9E3D0E0CECEC2EED0E0CBCEEE
:10292000C6EED0E0C8CEBF92CF92DF92EF92FF9278
:102930000F931F93CF93DF938C01C0901404D0901A
:102940001504E0901604F0901704809119029091FC
:102950001A02A0911B02B0911C02C82AD92AEA2AA5
:10296000FB2ACFE1D0E0BC2ED701C6010C2E04C05B
:10297000B695A795979587950A94D2F780FD0EC0D6
:10298000219788F7B12C8B2DDF91CF911F910F915B
:10299000FF90EF90DF90CF90BF900895B8018C2FFB
:1029A0000E940913019761F3EECFCF93DF93EC01FF
:1029B0000E949314BE01DF91CF910C9409130E94E1
:1029C000D514292F2F7092959F7092509E3078F4D5
:1029D000E92FF0E0E657F14D0C94E92A803F19F019
:1029E00020F4883E20F481E00895843FE1F380E004
:1029F0000895883EC0F3813FD1F7F5CF822F8695A9
:102A00008695869508956F927F928F929F92AF924E
:102A1000BF92CF92DF92EF92FF920F931F93CF93CB
:102A2000DF9386EFC82E83E0D82E06EB10E0E80196
:102A3000C058D10936011CC0F50185909490692DCC
:102A4000C7010E94542E682DC70101960E94542E82
:102A500082E0A80EB11C82E0E80EF11CCE15DF0565
:102A600059F780E1680E711C60960C171D0731F054
:102A70007E0180E1E81AF1085301DECF00581F4FB4
:102A800080E8C80ED11C063B82E0180781F6DF9172
:102A9000CF911F910F91FF90EF90DF90CF90BF905B
:102AA000AF909F908F907F906F900895CF93DF931A
:102AB000C6E2D2E060E0CE010E94542E2196C115FC
:102AC00084E0D807B9F7DF91CF910895CF93C82F4D
:102AD0006FEF811160E282E290E00E94542E6FEF6E
:102AE000C11162E183E290E00E94542E6FEFC111A8
:102AF00065E084E290E0CF910C94542E6CEE7EEF72
:102B000090E080E00E94722E60E082E090E00E94FF
:102B1000542E60E083E090E00E94542E109219023F
:102B200010921A0210921B0210921C0260E084E0C4
:102B300090E00E94542E60E081E290E00E94542ECA
:102B400060E085E090E00E94542E60E086E090E036
:102B50000E94542E6FEF87E090E00E94542E40E0D8
:102B600050E0BA0188E090E00E94662E60E08DE0BF
:102B700090E00E94542E40E050E0BA0188E190E0DD
:102B80000E94662E60E087E190E00E94542E40E0B3
:102B900050E0BA018CE190E00E94662E60E080E295
:102BA00090E00E94542E40E050E0BA018FE090E0A7
:102BB0000E94662E40E050E0BA0183E190E00C9460
:102BC000662ECF92DF92EF92FF926B017C010E9402
:102BD000170AB701A60188E090E0FF90EF90DF9020
:102BE000CF900C94662E80914A02833018F48F5F48
:102BF00080934A0260914602709147028091480298
:102C0000909149020C94E11580914A02882319F0B1
:102C1000815080934A0260914602709147028091F0
:102C20004802909149020C94E115BF92CF92DF9235
:102C3000EF92FF920F931F93CF93DF9300D00F92E9
:102C4000CDB7DEB7F82EC62EE42EB22E90914602F6
:102C500090FF29C0292F2695E22FF0E0EF5DFE4F6F
:102C60008081809344029E7F923051F59E012F5FB8
:102C70003F4F8F2D0E94260A4B8169818A810E94D5
:102C8000320FF0924702C0924802E0924902BB2004
:102C900051F06091460270914702809148029091F4
:102CA00049020E94E1150F900F900F90DF91CF9194
:102CB0001F910F91FF90EF90DF90CF90BF900895FC
:102CC000823019F4E0904902DCCF863019F4F0909C
:102CD0004702D7CF8930D9F3893199F687EED82EBC
:102CE000D20EED2DE695F0E0EF50FD4F05911491D9
:102CF00024EA31E08F2D0E94260AC8019695879517
:102D00008F779927D0FC0AC08F0D27EA31E04E2D2E
:102D10006C2D0E94260A0E94C30DB3CF2F2D281BB5
:102D2000822FF3CFE6E4F2E0438129E1421B08F46D
:102D300040E021E0628181810C941516E6E4F2E026
:102D4000438129E1420F08F44FEF21E06281818144
:102D50000C941516E6E4F2E0628121E1621B08F4AE
:102D600060E021E0438181810C941516E6E4F2E0F5
:102D7000628121E1620F08F46FEF21E043818181DC
:102D80000C941516E6E4F2E0818121E04381628132
:102D90008A500C941516E6E4F2E0818121E043812B
:102DA0006281865F0C941516E6E4F2E083E080838E
:102DB00011828FEF8283838314826081718182818B
:102DC00093810C94E11510921702E8E9F1E086E096
:102DD000DF011D928A95E9F70C94E1081F93CF93C8
:102DE000DF93CDB7DEB7AA970FB6F894DEBF0FBE5C
:102DF000CDBF85E692E02091F100DC012D93CD015D
:102E0000B2E08D369B07B9F780916602833009F4F2
:102E100071C0B8F4813009F448C0823009F4B2C0FE
:102E20008091E80083FF93C28091650290916602D1
:102E30009A3008F08CC2E92FF0E0E856F14D0C947E
:102E4000E92A8A3009F48DC08B3009F470C08930CA
:102E500039F780916502813219F78091690290916A
:102E60006A02009711F00297D9F68091E800877FF7
:102E70008093E8008091E80082FF37C09091F300D2
:102E80008091F200029729F48091F1008B7F8130CC
:102E900021F48091F100809359028091E8008B77B2
:102EA0008093E8000E944E05BBCF80916502813A75
:102EB00009F0B6CF8091E800877F8093E800809189
:102EC000690290916A02892B61F468E08AE592E0D8
:102ED00070E00E9400068091E8008B778093E80004
:102EE0009FCF60E090E080E0F3CF809113048111E8
:102EF000C1CF96CF80916502813A09F091CF809140
:102F0000690290916A02892B09F08ACF8091E800CA
:102F1000877F8093E8008091E80080FFFCCF80915C
:102F200018018093F1008091E8008E77B9CF8091ED
:102F30006502813209F074CF8091690290916A0232
:102F4000892B09F06DCF8091E800877F8093E8009E
:102F50000E944E0580916702809318010E94E3163B
:102F60005FCF80916502813209F05ACF8091E800ED
:102F7000877F8093E8000E944E05809168028093CD
:102F800058024ECF80916502813A09F049CF809175
:102F9000E800877F8093E8008091E80080FFFCCF05
:102FA00080915802BECF803899F0823809F0CFC1A5
:102FB000809169028F70873008F0C9C18093E90061
:102FC0008091EB0085FB882780F91092E90006C00C
:102FD0008091620290916302911182609091E80069
:102FE000977F9093E8008093F1001092F100809118
:102FF000E8008E77A8C1882309F496C1823009F0D1
:10300000A6C180916702811199C1809169028F7078
:103010002FEF280F263008F09AC18093E900209105
:10302000EB0020FF8BC1933031F48091EB00806284
:103030008093EB0083C19091EB0090619093EB0043
:1030400021E030E001C0220F8A95EAF72093EA00E0
:103050001092EA008091EB008860EACF811177C17D
:10306000109167021F778091E3008078812B809315
:10307000E3008091E800877F8093E8000E944E057E
:103080008091E80080FFFCCF8091E300806880930E
:10309000E30082E0111183E08093130458C180584B
:1030A000823008F054C120916702309168022C3DB3
:1030B000E3E03E07A1F583E08A838AE289834FB784
:1030C000F894DE01139620E03EE051E2E32FF0E0B9
:1030D00050935700E49120FF03C0E295EF703F5FEB
:1030E000EF708E2F90E0EA30C0F0C7968D939D93DD
:1030F0002F5F243159F74FBF8091E800877F80937D
:10310000E8006AE270E0CE0101960E94000680911C
:10311000E8008B778093E8001AC1C096E7CF8091D2
:10312000690290916A02432F55274330510509F4F3
:103130004AC078F54130510509F485C08BE590E02F
:10314000E4E5F7E04230510509F001C12091E800C3
:10315000277F2093E80020916B0230916C02821748
:10316000930708F49C0140E02115310509F070C077
:1031700041116EC08091E80082FDC9CF8091130497
:10318000882329F2853019F28091E80083FFF2CF7D
:10319000BECF4132510509F447C04232510509F012
:1031A000D6C08330910508F0D2C0FC01EE0FFF1F9E
:1031B000E657FE4F0190F081E02D89579E4FDC01CC
:1031C0008C9190E01DC0332721303105E9F02115A5
:1031D000310579F022303105F9F02330310509F05D
:1031E000B6C0E1ECF7E0E4918E2F90E0E1ECF7E07F
:1031F00007C0EBEFF7E0E4918E2F90E0EBEFF7E004
:10320000009709F4A4C0A2CFEFEDF7E0E4918E2F70
:1032100090E0EFEDF7E0F4CFE7ECF7E0E4918E2FEC
:1032200090E0E7ECF7E0ECCF8330910508F08FC039
:10323000880F991FFC01E057FE4F0190F081E02DAF
:1032400089E090E083CF82E190E0EFEAF7E07ECF83
:1032500080911304882309F45ACF853009F457CF9D
:103260008091E80083FD53CF8091E80082FD82CFFA
:103270008091E80080FF78CF9091F3008091F20078
:103280002115310519F08830910550F041E008977B
:1032900009F040E08091E8008E778093E80064CFE9
:1032A00044914093F1003196215031090196E8CFC5
:1032B000803809F04CC08091E800877F8093E80057
:1032C000809164028093F10092CE811140C01091F0
:1032D00067021230E0F58091E800877F8093E80074
:1032E000109364020E944E05112311F084E005C082
:1032F0008091E30087FDFACF81E08093130442E0E0
:1033000061EC81E00E946D0542E261EC84E00E9484
:103310006D0542E261EC82E00E946D0542E260ECE4
:1033200083E00E946D0513C080916702813079F4BB
:1033300081E0933009F080E0809363021092E9000D
:103340008091E800877F8093E8000E944E0580917D
:10335000E80083FF0AC08091E800877F8093E8003F
:103360008091EB0080628093EB00AA960FB6F894F0
:10337000DEBF0FBECDBFDF91CF911F910895909119
:10338000460290FF3DC09170811129C092609093D8
:103390004602662351F06091460270914702809187
:1033A0004802909149020E94E1156091460266959B
:1033B00070E04BE050E080E091E00E94752B892B9B
:1033C000A9F01092450281E080932E0220E0409106
:1033D000490260914802809147020C94151685328B
:1033E00010F09864D4CF880F982BD1CF81E08093D0
:1033F00045020E94D20790932C0280932B02E3CFC8
:103400000895809146028695815009F484E261E036
:103410000C94BF198091460286958F5F853208F023
:1034200081E061E00C94BF199091460290FF07C0C3
:103430009695981720F0961710F40C940A1A61E0EC
:103440000C94BF194F925F926F927F928F929F92CE
:10345000AF92BF92CF92DF92EF92FF920F931F93A2
:10346000CF93DF9300D000D00F92CDB7DEB77C01B1
:10347000FC0183819481892B31F0808191818923A2
:103480008F3F09F087C60F900F900F900F900F900D
:10349000DF91CF911F910F91FF90EF90DF90CF9030
:1034A000BF90AF909F908F907F906F905F904F9064
:1034B00008950E949314182F682F89819A810E9481
:1034C000690869817A81812F0E94FC128C01F701C1
:1034D0009281992309F453C6980122513F45203126
:1034E000310508F011C68FEF93E00E94402E025183
:1034F00046E2E42E42E0F42E8111C5CF01112FC027
:103500001B8287010F5F1F4FC7010E94402E8983D6
:103510001A82882309F4B7CF8150833078F532E0DE
:10352000E30EF11CC8010E94402E8A83882309F40F
:10353000AACFCE0101966C01F6012081222309F366
:103540005601FFEFAF1ABF0AF60111812130C1F415
:10355000812F0E94C909812F0E94880916C0E11499
:10356000F4E0FF0609F48FCFC7010E94402E8111BD
:1035700001C001502FEFE21AF20AC0CF7801D9CF73
:10358000223041F4812F0E94C9096501FFEFCF1A53
:10359000DF0AD2CF2330F9F230E0F901EA58F94FCF
:1035A000B490F901EA50FA4F0491F901EA58FA4F40
:1035B0001491002319F081EE0E94C909112319F01A
:1035C00086EE0E94C9098B2D0E944C0D112319F023
:1035D00086EE0E948809002319F081EE0E94880976
:1035E0005601D3CF81E00E945D0903C081E00E94B3
:1035F00022090F900F900F900F900F90DF91CF91B5
:103600001F910F91FF90EF90DF90CF90BF90AF9000
:103610009F908F907F906F905F904F900C940609D1
:1036200082E0E1CF063F2CE5120709F476C008F4EA
:1036300070C027E245EE66EE073F8CE5180709F4F7
:1036400086C5992309F4B7C51092B0010230ECE5A4
:103650001E0708F445C10631FCE51F0738F0980144
:103660002B5F3C452930310508F03AC10E94C71252
:10367000909327028093260200312CE5120709F46B
:10368000FEC008F088C008308CE5180709F4E9C0CE
:1036900008F05AC00430ECE51E0709F4D6C008F063
:1036A00043C002302CE5120709F4C9C080912602FC
:1036B000826003301C4509F4C5C060912602109158
:1036C000270284E090E00E94542E612F81E290E076
:1036D0000E94542E0F900F900F900F900F90DF913B
:1036E000CF911F910F91FF90EF90DF90CF90BF90FF
:1036F000AF909F908F907F906F905F904F900C94C1
:10370000E31627E245EE65EE22C526E241EE60EEC5
:103710001EC527E245EE64EE1AC526E241EE62EED2
:1037200016C528E241E0EFCF06308CE5180709F412
:1037300094C080912602886007301C4508F482C03E
:103740008091260280627EC0809126028D7F0C309F
:10375000ECE51E0709F476C070F4809126028C60B7
:103760000A302CE5120709F46DC008F47EC0809180
:1037700026028E7F67C00E308CE5180709F47BC0E7
:10378000809126028B7F0F301C4508F45BC080912E
:1037900026028F7E57C00C3FECE51E0709F459C086
:1037A00030F503312CE5120709F471C078F40131CA
:1037B0008CE5180709F467C002311C4509F07DCF7C
:1037C0000E94E316809126028F773CC00531ECE51C
:1037D0001E0709F464C008F478C080912702816054
:1037E0000B3F1C4509F069CF8093270266CF011576
:1037F0003DE5130709F44FC088F4809127028D7FBF
:103800000E3F9CE5190781F3809127028E7F0F3FC1
:103810001C4550F3809127028360E6CF0230FDE51E
:103820001F0709F45BC008F446C060E003301D4583
:1038300009F043CF8EE090E00E94542E3ECF80915D
:10384000260281608093260238CF80912602846010
:10385000F9CF809127028260C7CF809126028061D4
:10386000F1CF809126028064EDCF0E94E316809113
:1038700026028068E7CF80912602877FE3CF809180
:1038800026028F7DDFCF809126028F7BDBCF809158
:103890002602837FD7CF809127028C7FA5CF80918E
:1038A000260282FB992790F921E0922790FB82F96A
:1038B00090FB83F9C7CF80912702982F9095917044
:1038C0008E7F892B90FB81F98FCF0E94E316909118
:1038D0002602892F97FB87F98058B4CF61E0AACFE1
:1038E000809117020631ECE51E0709F07BC48A7A45
:1038F00091E009F490E09093B10169E2811165E3F0
:1039000086E991E00E94F4070F900F900F900F90BE
:103910000F90DF91CF911F910F91FF90EF90DF906B
:10392000CF90BF90AF909F908F907F906F905F905F
:103930004F900C94140885E347C48091460280FFA1
:103940002FC08E7F8093460260914602709147029D
:1039500080914802909149020E94E115109245021F
:10396000FFE728E331E0F15020403040E1F700C0AC
:1039700000000F900F900F900F900F90DF91CF915C
:103980001F910F91FF90EF90DF90CF90BF90AF907D
:103990009F908F907F906F905F904F900C94C30D8D
:1039A00081608093460261E086950F900F900F90A2
:1039B0000F900F90DF91CF911F910F91FF90EF909B
:1039C000DF90CF90BF90AF909F908F907F906F903F
:1039D0005F904F900C94BF1941E05AE16AE07AE1A0
:1039E0000F900F900F900F900F90DF91CF911F913C
:1039F0000F91FF90EF90DF90CF90BF90AF909F908E
:103A00008F907F906F905F904F900C94120A4AE0D5
:103A10005AE161E07AE1E4CF42EC56E16BEC76E109
:103A2000DFCF4BEC56E162EC76E1DACF4AEA56E1C1
:103A300066EB76E1D5CF46EB56E16AEA76E1D0CF88
:103A400042E956E16EE976E1CBCF4EE956E162E913
:103A500076E1C6CF44E056E163EF75E1C1CF43EFB5
:103A600055E164E076E1BCCF61E081E09ECF65E0A6
:103A700082E00F900F900F900F900F90DF91CF91F9
:103A80001F910F91FF90EF90DF90CF90BF90AF907C
:103A90009F908F907F906F905F904F900C94141A2E
:103AA00068E086E0E6CF6EE089E0E3CF64E18FE096
:103AB000E0CF67E185E1DDCF61E088E176CF62E2CA
:103AC00089E1D7CF61E083E270CF0D3D8CE5180727
:103AD00009F47FC008F048C00115FCE51F0709F490
:103AE00062C00C3D1C4509F471C0F70100811181D1
:103AF000992309F474C0C8010E949314D82E682F2A
:103B0000C8010E946908B8018D2D0E9409138C011B
:103B1000882EF701A580A2943FE0A322D280D11085
:103B20001092160280911402877079F0DD2069F0FE
:103B300080E2800F883048F082E00E944509809141
:103B400014028770CC24C3948111C12CB12EB2947D
:103B50002FE0B222FBE0FB1508F47BC0EB2DF0E078
:103B6000EE55F14D0C94E92A0E3D3CE51307A9F101
:103B70000F3D1C4509F0B9CF0F900F900F900F909B
:103B80000F90DF91CF911F910F91FF90EF90DF90F9
:103B9000CF90BF90AF909F908F907F906F905F90ED
:103BA0004F900C947E150E94E3169FE7EAE1F6E041
:103BB0009150E040F040E1F700C0000087E797E750
:103BC00090930108809300080E94970710921701B4
:103BD0005ACC82E08093170156CC83E0FBCFC8011A
:103BE0000E944108D82E8FCF212F2F70A22E107F38
:103BF00019F0A29490EFA922DD20C9F0AA2069F063
:103C000080E2800F883010F081100BC08091170285
:103C1000A82AA09217020E941408802F0E94C909A6
:103C200018C080911602A82AA0921602F4CF802F05
:103C30000E948809AA2069F0A094005E083010F064
:103C400081103BC080911702A822A09217020E9407
:103C50001408EB2DE850FF0B349710F40E94060A6D
:103C6000CC2009F410CC8091140280FD0CCCF7011B
:103C700012828595859585950E945D09C7010E94F0
:103C8000221A809114028595859585950F900F9045
:103C90000F900F900F90DF91CF911F910F91FF9098
:103CA000EF90DF90CF90BF90AF909F908F907F90DC
:103CB0006F905F904F900C94220980911602A82279
:103CC000A0921602C4CF312F3F70932E107F103276
:103CD00019F0929480EF9822882071F091E0891673
:103CE00061F1DD20B9F1AA2071F1F701858180FF32
:103CF00094CF8F70858327C0DD2091F090911802BA
:103D0000892D892BA11003C00E94AB08A2CFE1E04E
:103D1000AE12FACF981709F49CCF8093180299CF6E
:103D2000A11006C00E940E08892D0E94A00891CF04
:103D3000F1E0AF1609F48DCFF5CFDD2031F025E0AD
:103D40002A1508F486CF892DDFCF34E03A1508F420
:103D500080CFEACFAA2041F3093349F4FFEF23EFE4
:103D600031E0F15020403040E1F700C00000802FEA
:103D70000E9488096ECF812F86958695837061F0A9
:103D8000813009F066CFC8019370D11002C090E075
:103D900080E00E94B5085DCFC8019370D11002C0C9
:103DA00090E080E00E94CB0854CFDD2009F1053F70
:103DB00099F0063FB9F0043F49F48091B201909127
:103DC000B30181609093B3018093B201802F0E9470
:103DD0002F070E94DE073DCF8091B2019091B30181
:103DE0008260F0CF8091B2019091B3018460EACFFC
:103DF000053F89F0063FA9F0043F49F48091B201E4
:103E00009091B3018E7F9093B3018093B201802F84
:103E10000E946E06DECF8091B2019091B3018D7F3A
:103E2000F2CF8091B2019091B3018B7FECCF812FC3
:103E3000837009F066C0D1100CCF802F82958695D3
:103E40008770880F880F602F6F70462E512C712C51
:103E5000612C082E04C0440C551C661C771C0A9467
:103E6000D2F740E050E0BA0104FF0FC04FE050E04D
:103E700060E070E004C0440F551F661F771F8A95ED
:103E8000D2F74095509560957095812F86958695CF
:103E90008370823019F1D8F40091190210911A023E
:103EA00020911B0230911C02813069F04429552970
:103EB00066297729CB01BA016023712382239323DA
:103EC0000E947E09C6CE402A512A622A732ACB015B
:103ED000BA016429752986299729F2CF44295529E1
:103EE000662977290091190210911A0220911B026C
:103EF00030911C02CB01BA016027712782279327DA
:103F0000DFCF8695DD2011F0812F8170882309F4A1
:103F1000A0CE802F829586958770880F880F602F9E
:103F20006F70462E512C712C612C082E04C0440C4D
:103F3000551C661C771C0A94D2F740E050E0BA0189
:103F400004FF0FC04FE050E060E070E004C0440F99
:103F5000551F661F771F8A95D2F74095509560953B
:103F60007095812F869586958370823019F1D8F4EB
:103F70000091140410911504209116043091170437
:103F8000813069F04429552966297729CB01BA0186
:103F900060237123822393230E94FC085ACE402A77
:103FA000512A622A732ACB01BA016429752986290C
:103FB0009729F2CF442955296629772900911404BD
:103FC000109115042091160430911704CB01BA0109
:103FD0006027712782279327DFCF1F70DD2029F00C
:103FE000812F0E945D09802F8FCE802F0E94A00814
:103FF000812F0E9422092DCE802F92EF891609F47D
:1040000050C0981578F0E0EF8E1619F1F1EF8F1689
:1040100009F43FC0DD2009F467C0A110FECD812F57
:104020008F713CC023EF821609F440C034EF831235
:10403000F1CFDD2009F44DC01F71812F0E945D0971
:10404000E8E01E9FC0011124836080931402812F39
:1040500025C0DD20C9F084E08A1508F4FACD1F716F
:1040600061E070E080E090E004C0660F771F881F79
:10407000991F1A95D2F700911404109115042091FC
:10408000160430911704A4CF95E09A1508F4E1CDF9
:10409000E6CF812F8F71DD2009F4ABCF0E945D093F
:1040A000D8CD812F8F71DD20C9F3A3CF60E070E000
:1040B000CB01DD2009F470CF1F7161E070E080E07A
:1040C00090E004C0660F771F881F991F1A95D2F7DA
:1040D00063CF81E00E944509F1E0FA1508F0B9CDFF
:1040E00082E00E944509B5CDAA2059F0893309F034
:1040F0003ECE2FEF33EF81E0215030408040E1F79A
:1041000034CE812F8F7175CF0031FFE51F0709F481
:1041100069CA01312FE5120709F482CA043F2CE570
:10412000120709F4F2CA08F07DCA083D8CE51807A9
:1041300009F4E7CA093DECE51E0709F4F2CA073D98
:10414000FCE51F0709F07DCA26E241EE61EEC701DA
:104150000F900F900F900F900F90DF91CF911F91C4
:104160000F91FF90EF90DF90CF90BF90AF909F9016
:104170008F907F906F905F904F900C945F0D003107
:104180003FE5130709F432CA01318FE5180731F60C
:1041900082E02DCA85E0DE01119601900D928A958C
:1041A000E1F7F701228189819A81211182C90E9458
:1041B0004108182F86C906311C4509F096CC80911C
:1041C000B1018111B8CB89E2E8E9F1E02EE931E0F3
:1041D0009191891303C0DF0111971C922E173F079D
:1041E000B9F792CB8272F801E25CFC45E431F1054B
:1041F00008F06BCCE255F14D0C94E92A1F93CF9354
:10420000DF938091B901807FC1F48091B60188234A
:10421000A1F08091EB01C091BA016091B40170915D
:10422000B5014091B7015091B801D62FD723DA01DB
:10423000A095B09516E0C81304C0DF91CF911F91EF
:10424000089590E04115510511F0DF3F31F40196DA
:104250008770F1CF2A0F3B1F17C0189FF001199FDD
:10426000F00D1124E554FE4F21812713F0CF20815A
:104270002613EDCF22812111EACF23813481241727
:10428000350740F3241B350B283C310500F72091FE
:10429000B9012F7020612093B90126E0289FF00119
:1042A000299FF00D1124E054FE4F80818F708061B2
:1042B000808384EB91E00E94221ADF91CF911F91BD
:1042C0000C949608BF92CF92DF92EF92FF920F93D9
:1042D0001F93CF93DF93CDB7DEB761970FB6F894F6
:1042E000DEBF0FBECDBF8C0185E0F801DE011D965B
:1042F00001900D928A95E1F7D8012C9111963C918D
:1043000011971296EC9012978091B7019091B80195
:10431000009709F463C14091B4015091B501642F35
:1043200065236F3F09F45AC11396CD90DC90B0908D
:10433000B601BB2009F413C1C816D906C0F1F601B5
:10434000E81BF90BCF01FF24F394883C910508F09A
:10435000F12C8091B901982F907FFF2009F4C1C002
:1043600091117DC0FE2C531327C0421325C0E110CC
:1043700023C08F7080618093B90184EB91E00E942B
:10438000221A8091B901D80115968C938F2D6196D0
:104390000FB6F894DEBF0FBECDBFDF91CF911F9156
:1043A0000F91FF90EF90DF90CF90BF900895809590
:1043B00090958C0D9D1DC7CFCD2829F0822F83238A
:1043C0008F3F09F029C180E0B82FB170DB2E80FF4C
:1043D0003CC08091EB014091BA0156E0841315C0B6
:1043E0002D873E878D859E850E94D514292F229585
:1043F0002F702230F0F0243018F59F70F1F0F801A2
:104400009581907FD1F4D12C1EC090E0589FF0018F
:10441000599FF00D1124E554FE4F6181361306C0FB
:104420006081261303C06281E6120FC00196877077
:10443000D5CF9F7011F0882331F3805E883018F358
:10444000C8010E94221AFD2CA1CFEE2009F49ECFB4
:104450008091B90181608093B901F12C97CF5313FA
:1044600013C0421311C0E1100FC0D80115968C93F0
:10447000C8010E94221A86E0F801A4EBB1E0019085
:104480000D928A95E1F782CF2D873E878D859E8597
:104490000E94DF14882309F1EE20F9F08091B90120
:1044A000803270F02091B4013091B50138872F83AC
:1044B0001986DB86CA868C87CE0107960E94221A4F
:1044C00086E0F801A4EBB1E001900D928A95E1F746
:1044D0000E94FE20FF24F39459CFC8010E94221AA3
:1044E000F9CF91110CC084EB91E00E94221A86E072
:1044F000E4EBF1E0DF011D928A95E9F747CF531312
:1045000012C0421310C0E1100EC0F8018583C8012B
:104510000E94221AE4EBF1E086E0DF011D928A9509
:10452000E9F7FB2C33CF2D873E878D859E850E9432
:10453000DF14882391F2EE2081F28091B90180325C
:1045400008F4BECF2091B4013091B5013A8329839C
:104550001B82DD82CC828E83CE010196AFCFC8163E
:10456000D90640F0C81AD90AB8ECCB16D10448F0E5
:10457000F12CBDCF809590958C0D9D1D883C9105AB
:10458000B8F7FE2CEE2009F4A8CF531316C042133F
:1045900014C08091B90180FD6ECF982F907F09F4EF
:1045A0006ACFF8018583903F09F462CF982F907FFE
:1045B000905F8F70892B85835BCF2D873E878D859C
:1045C0009E850E94DF1481117BCF8091B9018160AB
:1045D0008093B901C8010E94221AD8CEEE2009F4B6
:1045E0007CCF2D873E878D859E850E94DF14F82E17
:1045F000882309F472CF86E0F801A4EBB1E00190C2
:104600000D928A95E1F78091B4019091B5010E94D5
:10461000D5140E94FE20BACE81E08E25D5CE1F9300
:10462000CF93DF93CDB7DEB767970FB6F894DEBFB1
:104630000FBECDBF4B8B5C8B6D8B7E8B8F8B1A8AA5
:10464000198A85E0FE017396DE011D9601900D9298
:104650008A95E1F786E0FE013D96DE01179601900E
:104660000D928A95E1F7CE0107960E946221811191
:1046700012C086E0FE013796DE01119601900D9280
:104680008A95E1F78A859B85892B29F08F8198850A
:1046900089238F3FB1F516E08091EB019091BA012B
:1046A00089131DC067960FB6F894DEBF0FBECDBF4D
:1046B000DF91CF911F91089596E0929FD001939F33
:1046C000B00D1124A554BE4FFE01319601900D92FC
:1046D0009A95E1F78093BA010E949608DCCF819FFA
:1046E000C001112485549E4F0E9462218823D1F27B
:1046F0008091EB0190E00196877099278093EB0100
:10470000CBCF2091BA0130E0C9010196877099277B
:104710004091EB014817190679F60E94E3161092B2
:10472000BA011092EB0186E0E4EBF1E0DF011D92AB
:104730008A95E9F7B0CF10920B0410920C04EDE0CB
:10474000F4E01482158208951F920F920FB60F9213
:1047500011242F933F934F935F936F937F938F9386
:104760009F93AF93BF93CF93DF93EF93FF93D0913A
:10477000E900DF708091EC00C82FC17080FDC0E8B7
:104780001092E9008091F000877F8093F000789488
:104790000E94EE161092E9008091F00088608093EC
:1047A000F000CD2BCF70C093E900FF91EF91DF9126
:1047B000CF91BF91AF919F918F917F916F915F91B9
:1047C0004F913F912F910F900FBE0F901F90189512
:1047D0001F920F920FB60F9211242F933F934F9376
:1047E0005F936F937F938F939F93AF93BF93EF9359
:1047F000FF938091E10082FF09C08091E20082FF77
:1048000005C08091E1008B7F8093E1008091DA0008
:1048100080FF23C08091D80080FF1FC08091DA0004
:104820008E7F8093DA008091D90019BC80FF9CC0F4
:1048300082E089BD09B400FEFDCF81E080931304BE
:1048400080915702811109C00E94AC040E949F050B
:104850008091E20084608093E2008091E10080FF1B
:1048600017C08091E20080FF13C08091E2008E7F2C
:104870008093E2008091E20080618093E200809169
:10488000D80080628093D80019BC85E0809313041F
:104890008091E10084FF2CC08091E20084FF28C059
:1048A00019BC82E089BD89B5982F917080FFFBCF3C
:1048B0008091D8008F7D8093D8008091E1008F7E19
:1048C0008093E1008091E2008F7E8093E2008091EE
:1048D000E20081608093E20080916402882309F401
:1048E00048C084E0809313040E94E3160E94060AE5
:1048F0008091E10083FF27C08091E20083FF23C005
:104900008091E100877F8093E10082E0809313042F
:10491000109264028091E1008E7F8093E10080918B
:10492000E2008E7F8093E2008091E20080618093BC
:10493000E20042E060E080E00E946D058091F000BE
:1049400088608093F000FF91EF91BF91AF919F91AC
:104950008F917F916F915F914F913F912F910F9028
:104960000FBE0F901F9018951092130410925702CB
:1049700074CF8091E30087FD93E090931304B4CF4C
:10498000CDB7DEB7CC58D1090FB6F894DEBF0FBE55
:10499000CDBF84B7877F84BF0FB6F894A895809168
:1049A0006000886180936000109260000FBE80E814
:1049B00090E00FB6F89480936100909361000FBE71
:1049C00085B7806885BF85B7806885BF0E94AC04C5
:1049D0000E949F058091E20084608093E2007894B9
:1049E000809113048823A1F01091E9001F70909129
:1049F000EC00892F817090FD80E8182B1092E9005F
:104A00008091E80083FD0E94EE161F701093E9006C
:104A100082E084BD93E095BD9DE797BD80936E00D5
:104A2000A7E7B1E04FE751E061E070E08D91E82F3A
:104A3000E295EF70F0E011A18F709B0101C0220F91
:104A40008A95EAF7922F9095912391A382A1822BC8
:104A500082A34A175B0751F7AFE7B1E047E851E09F
:104A600061E070E08D91E82FE295EF70F0E011A128
:104A70008F709B0101C0220F8A95EAF7922F9095C3
:104A8000912391A382A1822B82A34A175B0751F73E
:104A9000EEE1F2E086E292E0ABE4B2E011921D9228
:104AA0008E179F07D9F70E94C20F8FE19EE40197EE
:104AB000F1F700C000000E94C20F80914B0280FFFE
:104AC0000BC080E00E9466156FEF7FEF90E080E002
:104AD0000E94722E0E94970790E080E00E944E2E66
:104AE0008C3E9E4F11F00E947E1582E290E00E9463
:104AF000402E803209F0E4C483E290E00E94402E10
:104B0000823109F0DDC484E290E00E94402E8530BD
:104B100009F0D6C490E080E00E944E2E8C3E9E4F5D
:104B200011F00E947E1582E090E00E94402E80935A
:104B30003B020E94C712909327028093260283E0D3
:104B400090E00E94402E682F70E090E080E00E948C
:104B50007E0980912802811136C090E080E00E9499
:104B60004E2E8C3E9E4F21F00E947E150E94D41640
:104B700088E090E00E94482E6093460270934702BE
:104B800080934802909349026E7F71F40E94D4167C
:104B900088E090E00E94482E60934602709347029E
:104BA00080934802909349020E94170A109245028E
:104BB0008091460280FF04C060E086950E94BF1984
:104BC00081E0809328028DE091E090932A02809307
:104BD000290216EFE12E16E0F12E0E94C20FECE33F
:104BE000F2E0ABE4B2E010E000E0302F8D912191D3
:104BF000281709F444C190E0DD24D3942827422FDC
:104C00004D2109F437C1CF57DF4F9883C158D040A9
:104C1000CE57DF4F3883C258D0408D2191E009F440
:104C200090E0CD57DF4F9883C358D0400E94D20701
:104C30008160782FCC57DF4F99838883C458D04048
:104C4000CF57DF4F4881C158D040CE57DF4F5881F2
:104C5000C258D040CD57DF4F6881C358D040CB57A2
:104C6000DF4F8881C558D0400E940F23F801E45CD3
:104C7000FD4F8081D826D08280914502882309F497
:104C800041C080914402E0914602E695E81BE09322
:104C90002D02823009F02AC1F0E0EC5FF84FE49178
:104CA0000E2F10E0BEE9CB2EBFE0DB2E80912E024E
:104CB000882389F010922E020E94D2079801209535
:104CC0003095820F931F90932C0280932B021092A9
:104CD000300210922F0280912B0290912C020E94A0
:104CE000A8078017910770F0E0912B02F0912C0239
:104CF0000E0F1F1F10932C0200932B028BE292E0E9
:104D0000F601099580913802909139020E94A80716
:104D1000AC01909137022CE231E0992311F022E3AB
:104D200030E04217530778F020913302109134029B
:104D300000913502D0903602211131C1812F802B94
:104D40008D2909F0D3C30E94060A90913A0289176F
:104D500021F00E94060A80933A028091710281112B
:104D600082C18091700281112EC010926F026E98E4
:104D70007698249A2C9A80E580936D0291E0909326
:104D80006E022FB7F894289A209A8CB580618CBD5A
:104D90008CB580648CBD219A229A2FBF549A5C9A5C
:104DA0005C98EFE1FEE43197F1F700C000005C9AF7
:104DB000FFEF29E638E1F15020403040E1F700C034
:104DC0000000909370021092710208E017E042E038
:104DD00050E0B801CE0185579F4F0E944B2B40E811
:104DE00050E0BE016F5F7F4FC557DF4F88819981CB
:104DF000CB58D0400E94D40C882379F00E5F1F4F0F
:104E000047E00431140719F781E0809371020E9492
:104E1000D20790937A028093790280917102811176
:104E200022C180911304843009F0D7CE83E08093AF
:104E3000E9008091E80082FFD0CE8091E80090E008
:104E400085FF06C00E94CB04882309F494C191E039
:104E50008091E8008B778093E800992309F4BDCE18
:104E6000E981E150E33108F0DEC1F0E0EE53F14DAD
:104E70000C94E92A9F5FDD0C983009F0C0CE0F5FDB
:104E80001F4F0830110509F0B0CE8FEFCA57DF4F22
:104E90008883C658D040C957DF4F8883C758D04051
:104EA000C857DF4F1882C858D0400E94D20781608F
:104EB000782FC757DF4F99838883C958D040CA5786
:104EC000DF4F4881C658D040C957DF4F5881C75877
:104ED000D040C857DF4F6881C858D040C657DF4F11
:104EE0008881CA58D0400E940F23C6CE863059F41C
:104EF000F0E0EF5FF84FE4910E2F10E0A2EBCA2E26
:104F0000AFE0DA2ED3CE893061F4E695F0E0E250DE
:104F1000F94FE4910E2F10E0F0E3CF2EFEE0DF2EEC
:104F2000C5CE8F3061F4E695F0E0E550F94FE4919D
:104F30000E2F10E0E7E5CE2EEEE0DE2EB7CE853167
:104F400059F4F0E0E850F94FE4910E2F10E07AEBBD
:104F5000C72E7EE0D72EAACE08EE13E045E0C42E81
:104F60004FE0D42E883109F4A1CE833241F4F70109
:104F70000591149165E4C62E6FE0D62E97CE04EF0E
:104F800011E053E0C52E5EE0D52E843209F48ECEBA
:104F900000ED17E03AE6C32E36E0D32E87CE9F3FD2
:104FA00019F09F5F90933702121624F40E940F07A6
:104FB000809333028091330287FF05C00E940F0760
:104FC000819580933302111624F40E940F07809379
:104FD00034028091340287FF05C00E940F0781953B
:104FE00080933402309133023323A1F020913402B4
:104FF000222381F045EB3403C0011124992359F198
:105000009093330245EB240390011124332339F1AB
:1050100030933402101624F40E94ED06809335027A
:105020008091350287FF05C00E94ED06819580932F
:1050300035021D1424F40E94ED06809336028091FF
:10504000360287FF05C00E94ED06819580933602E7
:105050000E94DE0778CE81E080933302D3CF81E0D7
:1050600080933402D7CF81E00E944C0B8AE090E01D
:105070000E9477108091790290917A020E94A8078D
:10508000893E9340C8F180917202811117C040E3BC
:1050900050E0BE016F5F7F4F81E497E00E94D40C27
:1050A000882349F040E350E0BE016F5F7F4F8EE2FE
:1050B00097E00E94D40C81E0809372020E94D20794
:1050C00090937A028093790240E350E0BE016F5FD3
:1050D0007F4F80E297E00E94D40C882369F0CE01D4
:1050E00001960E942D2B21E0892B09F420E080916C
:1050F0006F02281320936F028091730290917402C3
:105100000E94A8078131974208F48BCE9091110438
:1051100080911204981385CE0E94D2079093740256
:1051200080937302EBE1F7E0E49185E880937A00E5
:105130008E2F8072806880937B00EF71E064E09333
:105140007C0080917A00806480937A0080917A005C
:1051500086FDFCCF8091780090917900092E000C9B
:10516000AA0BBB0B8093750290937602A0937702F3
:10517000B093780256CE00E210E09E012F5F3F4FC1
:1051800069018091E80085FD0AC08091E8008B7775
:105190008093E8000E94CB04882399F358CE809135
:1051A000F100F60181936F010150110951F74FCEC3
:1051B0001A8289E08B8319C08A81823009F48DC1FB
:1051C0008330C1F0813079F52FB7F89460915302A4
:1051D0007091540280915502909156022FBF0E9407
:1051E000EF2A6B837C838D839E83CE0101960E9480
:1051F0002605F3CCDE011396EBE4F2E081918D936A
:1052000022E0E335F207D1F7F0CF8A81823059F4FA
:105210006B817C818D819E810E94EF2A85E290E0E6
:105220000E94542EE2CF8FEF8983DFCF4C816B81B8
:105230008A810E94D5129827892798279E838D837B
:10524000D4CFCD80DE80DC24CD24DC240A8130E87C
:10525000039F800111248B8140E1849FC0011124B0
:10526000080F191F8C8190E0880F991F080F191FD4
:105270006D2DC80186960E94542E6C2DC80187960C
:10528000CFCF0E940315B1CF8A818138C1F060F47D
:10529000803809F0AACF20E04B81609148028091CC
:1052A00047020E941516A1CF823859F1833809F0C0
:1052B0009CCF20E0409149026C818B81F2CF60E06D
:1052C0008B810E94BF199B8180914602911111C070
:1052D0008E7F80934602109245028FE798E3E1E0CB
:1052E00081509040E040E1F700C000000E94C30DF3
:1052F0007CCF81608093460260E086950E94BF1952
:1053000074CF8B8180934A0270CF8A81813899F063
:1053100030F4803809F069CF809149024BCF823850
:1053200091F0833809F061CF809147028B8380919F
:1053300048028C835ACF8091460280FF02C0869536
:1053400039CF80E037CF80914A0234CF6091460256
:105350007091470280914802909149020E94E115A4
:1053600044CF80E18A8341CF81E08A838AED22CFD6
:10537000CA80DB80DC24CD24DC248E010F5F1F4F2C
:10538000AC80A00EB12EB11CC6018A5D9D4F0A15DE
:105390001B0509F42ACFFAEDCF16F1E0DF0650F431
:1053A0000E94402EF8018483FFEFCF1ADF0A0F5FBF
:1053B0001F4FEACFF8011482F7CF0A811B81102713
:1053C000012710279E012F5F3F4F5901CC80C00E4F
:1053D000D12ED11CC8018A5D9D4FC016D10609F49B
:1053E00004CF0A3D31E0130720F4F50164810E94E7
:1053F000542EFFEFAF1ABF0A0F5F1F4FEBCF0E9473
:105400005615F3CE84E0AECFCA80DB80DC24CD24F9
:10541000DC248E010F5F1F4FAC80A00EB12EB11C9B
:10542000C6018696A016B10609F4DFCEC11422E0AB
:10543000D20650F40E94402EF8018483FFEFCF1A69
:10544000DF0A0F5F1F4FECCFF8011482F7CF0A81FC
:105450001B811027012710279E012F5F3F4F590105
:10546000CC80C00ED12ED11CC8018696C016D106A4
:1054700009F4BBCE011532E0130720F4F501648175
:105480000E94542EFFEFAF1ABF0A0F5F1F4FECCFE1
:1054900080E00E9466156FEF7FEF90E080E00E9451
:1054A000722EA3CECE0101960E9426052FEF30E783
:1054B00042E0215030404040E1F700C000000ACBFC
:1054C00060E085E290E00E94542E0E9403150E9445
:1054D000561581E00E9466151DCB85E290E00E9482
:1054E000402E1B821C821D828E837FCE9F3F09F03F
:1054F00058CD69CD78941F921FB61F9211248F93B7
:105500009F93AF93BF938091530290915402A091C7
:105510005502B09156020196A11DB11D8093530210
:1055200090935402A0935502B0935602BF91AF914D
:105530009F918F911F901FBE1F9018951F921FB6AD
:105540001F9211248F939F93AF93BF938091530227
:1055500090915402A0915502B09156024196A11D1E
:10556000B11D8093530290935402A0935502B093BF
:105570005602BF91AF919F918F911F901FBE1F90B8
:105580001895AA1BBB1B51E107C0AA1FBB1FA6177A
:10559000B70710F0A61BB70B881F991F5A95A9F7DC
:1055A00080959095BC01CD01089597FB072E16F4C8
:1055B000009407D077FD09D00E94C12A07FC05D0CE
:1055C0003EF4909581959F4F0895709561957F4F1A
:1055D0000895EE0FFF1F0590F491E02D09946927BF
:1055E0009627692778278727782708952F923F9253
:1055F0004F925F926F927F928F929F92AF92BF92E3
:10560000CF92DF92EF92FF920F931F93CF93DF938E
:10561000CDB7DEB7CA1BDB0B0FB6F894DEBF0FBEEB
:10562000CDBF09942A88398848885F846E847D8438
:105630008C849B84AA84B984C884DF80EE80FD803A
:105640000C811B81AA81B981CE0FD11D0FB6F894B0
:10565000DEBF0FBECDBFED010895FC01882799275D
:10566000E89421912032E9F3293010F02E30C8F36C
:105670002B3241F02D3239F4689404C00E946D2B16
:10568000820F911D219120532A30C0F31EF4909572
:1056900081959F4F0895FB01DC0102C005900D929A
:1056A00041505040D8F70895FB01DC018D910590E1
:1056B00080190110D9F3990B0895FB01DC010590C5
:1056C0000D920020E1F70895FC0105900020E9F714
:1056D000809590958E0F9F1F08957AE0979F902D4B
:1056E000879F802D910D11240895FC014150504059
:1056F00030F001900616D1F73197CF010895882731
:1057000099270895FB01DC0102C001900D924150E0
:105710005040D8F70895FB01DC010D900020E9F717
:10572000119701900D920020E1F70895FC0181E0AE
:1057300090E00190061609F4CF010020D1F70197FF
:105740000895AEE0B0E0E7EAFBE20C94042B0D898B
:105750001E898F89988D26E02C831A83098397FFF1
:1057600002C080E090E801979E838D83AE01455E84
:105770005F4F698D7A8DCE0101960E94D12B4D81AC
:105780005E8157FD0AC02F813885421753070CF4FC
:105790009A01020F131FF80110822E96E4E00C9478
:1057A000202BABE0B0E0E7EDFBE20C94F62A7C01A5
:1057B0003B018A01FC0117821682838181FFB9C1F6
:1057C0009AE0292ECE0101965C01F7019381F30145
:1057D00093FD859193FF81913F01882309F446C190
:1057E000853239F493FD859193FF81913F01853294
:1057F00029F4B70190E00E94B22DE7CF912C412C03
:10580000512CFFE1F51538F08B3209F188F4803224
:1058100001F1833221F157FC3AC020ED280F2A30E4
:1058200040F556FE1FC0929C200D1124922E06C0FA
:105830008D3291F0803379F7689450F8F30193FD3D
:10584000859193FF81913F018111DBCF20C0689446
:1058500051F8689452F8F2CF689453F8EFCF6894F7
:1058600054F8ECCF429C200D1124422E689455F838
:10587000E5CF8E3229F456FCF9C0689456F8DECF95
:105880008C3619F4689457F8D9CF8836B9F2982F26
:105890009F7D95549330C0F08336A1F18337C1F1D9
:1058A000833509F05BC0F801C190D1908F01692D5B
:1058B00070E056FC02C06FEF7FEFC6010E949C2D86
:1058C0004C01689457F80AC00C5F1F4F2FE32983DF
:1058D00088248394912C6501E89457F853FC04C004
:1058E0004814190409F018F5342C8114910431F589
:1058F000332009F46ACFB70180E290E00E94B22D14
:105900003A94F6CFF801808189830E5F1F4FE0CF74
:10591000F801C190D1908F01692D70E056FC02C052
:105920006FEF7FEFC6010E94A72D4C01D5CFB701C5
:1059300080E290E00E94B22D4A94D2CFF60157FC4B
:10594000859157FE81916F01B70190E00E94B22DC1
:1059500031103A94F1E08F1A9108C7CF843619F0CC
:10596000893609F074C0F80157FE6AC061917191DF
:10597000819191918F01252D2F76D22E97FF09C00D
:1059800090958095709561957F4F8F4F9F4F68944C
:10599000D7F82AE030E0A5010E94E22DC82ECA18EF
:1059A0008C2C5D2CD6FE0CC0E89450F8C91440F441
:1059B000D4FE05C0D2FC03C0FD2DFE7E5F2E892CD7
:1059C00054FE8FC0FE01EC0DF11D8081803309F083
:1059D00081C0252D297E522E852D8870382E53FCAE
:1059E0008FC050FE89C09C2C841418F44C0C942C4D
:1059F000981854FE8BC0B70180E390E00E94B22D4E
:105A000052FE09C088E790E051FE02C088E590E0B0
:105A1000B7010E94B22DC91408F484C0CA94D12CD5
:105A20009FEFC91AD90ACA0CDB1CF60182916F01DB
:105A3000B70190E00E94B22DAC14BD04B1F758CF6D
:105A400061917191072E000C880B990B93CFD52C87
:105A5000E894D4F82AE030E0853739F1952D997F24
:105A6000D92E8F3601F148F48835A9F0F7018681E7
:105A700097812B96E2E10C94122B803749F08837FE
:105A8000A9F7D4FE02C06894D2F820E130E00DC03E
:105A90006894D4F8F6CF54FE03C0E92FE660DE2EFA
:105AA00020E132E002C028E030E0F801D7FE0DC06E
:105AB00061917191819191918F01A5010E94E22DD7
:105AC000C82ECA18E894D7F86BCF6191719190E015
:105AD00080E0F2CF52FC02C083947ECF8394839403
